:020000040800F2
:1000000068140020690200081F1900082B18000856
:100010001D19000899030008711F00080000000066
:10002000000000000000000000000000A90100081E
:100030003D0600080000000005020008311C000811
:10004000830200088302000883020008830200087C
:10005000830200088302000883020008830200086C
:10006000830200088302000883020008830200085C
:10007000830200088302000883020008830200084C
:10008000830200088302000883020008830200083C
:10009000830200088302000883020008830200082C
:1000A000830200088302000883020008830200081C
:1000B000830200088302000883020008830200080C
:1000C00083020008830200088302000883020008FC
:1000D00083020008830200088302000883020008EC
:1000E00083020008830200088302000883020008DC
:1000F000DD1C000883020008830200088302000858
:1001000083020008000000000000000083020008D5
:1001100083020008830200088302000883020008AB
:10012000830200088302000883020008830200089B
:1001300083020008830200080000000000000000A5
:100140008302000883020008830200080000000008
:10015000000000000000000000000000000000009F
:10016000830200088302000883020008830200085B
:10017000830200088302000883020008830200084B
:100180008302000883020008000000000000000055
:1001900083020008DFF80CD000F0ECF800480047BC
:1001A000B11F0008681400202C4B19680868B0E8DB
:1001B000F04F80F30988BFF36F8F4FF0000080F39A
:1001C000118870470000000008480068006880F34C
:1001D00008884FF0000080F3148862B661B6BFF360
:1001E0004F8FBFF36F8F00DF00BF00BF08ED00E04F
:1001F000DFF80C00016841F470010160704700BF36
:1002000088ED00E0EFF30980BFF36F8F134B1A689E
:100210001EF0100F08BF20ED108A20E9F04F10608B
:1002200009B44FF0500080F31188BFF34F8FBFF334
:100230006F8F02F0A9FA4FF0000080F3118809BC1B
:1002400019680868B0E8F04F1EF0100F08BFB0EC56
:10025000108A80F30988BFF36F8F70472000002059
:10026000EFF30580704700000648804706480047C6
:10027000FEE7FEE7FEE7FEE7FEE7FEE7FEE7FEE756
:10028000FEE7FEE7C11C0008950100082DE9F05FBC
:100290000546002092469B468846064681464024F5
:1002A0001BE0284641464746224600F020F85346C8
:1002B0005A46C01A914110D311461846224600F002
:1002C0004AF82D1A67EB01084F462246012000210B
:1002D00000F041F817EB00094E41201EA4F1010483
:1002E000DFDC484631462A464346BDE8F09F202AD7
:1002F00004DB203A21FA02F00021704721FA02F3D0
:10030000D040C2F12002914008431946704740EAAC
:1003100001039B0703D009E008C9121F08C0042A83
:10032000FAD203E011F8013B00F8013B521EF9D26A
:100330007047D2B201E000F8012B491EFBD2704792
:100340000022F6E710B513460A4604461946FFF7A1
:10035000F0FF204610BD202A04DB203A00FA02F10B
:10036000002070479140C2F1200320FA03F31943A3
:1003700090407047064C074D06E0E06840F00103EE
:1003800094E8070098471034AC42F6D3FFF706FF15
:10039000A02B0008C02B0008FEE701F044BB2DE9AC
:1003A000F04180460F46084600F044F800283FD050
:1003B000404601F066FB3946404601F0EFFBBE21A6
:1003C000404601F01DFC404601F04BFB404601F069
:1003D00048FB404601F045FB404601F042FB4046E9
:1003E00001F03FFB04467D26C925404601F049FB4C
:1003F0003946404601F0D2FB4E21404601F000FC58
:100400003146404601F0FCFB2946404601F0F8FB2E
:100410002146404601F0F4FB404601F032FB3946EC
:10042000404601F0BBFB4821404601F0E9FB0120BA
:10043000BDE8F0810078282801D000207047012015
:10044000704700002DE9FE438046002516460F4602
:100450002C460846FFF7EEFF002821D0404601F069
:10046000E2FA00281CD0404601F00BFB394640461A
:1004700001F094FBBE21404601F0C2FB6F464046AE
:1004800001F0EFFA3855641CE4B2092CF7D30821C7
:10049000684601F071FA9DF80810814202D00020F0
:1004A000BDE8FE83BDF80040404601F0EAFA2004B2
:1004B00003D5E043401C84B201259DF80400C4F339
:1004C0000222C0F3411144F30710093140EA02103F
:1004D000092916D00A291DD00B2926D00C292DD088
:1004E0005FF000009FED1A0A00EE900AF8EEE00AB5
:1004F00030EE800A0DB1B1EE400A86ED000A01200F
:10050000CEE7C4F3C00100EE101AF6EE000AB8EE12
:10051000400A07E0C4F3810100EE101AF5EE000A6C
:10052000B8EE400A20EE200ADEE7C4F3420100EEF6
:10053000101AF4EE000AB8EE400AF3E704F00F01D7
:1005400000EE101ADFED030AB8EE400AEAE70000F9
:1005500000007F430000803D2DE9F0470746154627
:100560000E460846FFF766FF002857D0384601F0D0
:1005700088FA3146384601F011FBBE21384601F0B9
:100580003FFB384601F06DFA384601F06AFA38460A
:1005900001F067FA8146384601F063FA8046384632
:1005A00001F05FFA0446092D06D00A2D07D00B2D65
:1005B00008D00C2D0BD00EE020F0400004E020F01D
:1005C000400006E040F0400020F0200403E040F04E
:1005D000400040F02004384601F053FA31463846D6
:1005E00001F0DCFA4E21384601F00AFB4946384654
:1005F00001F006FB4146384601F002FB2146384631
:1006000001F0FEFA384601F03CFA3146384601F076
:10061000C5FA4821384601F0F3FA0120BDE8F08719
:1006200010B5044601F02DFACC21204601F0E8FA7D
:100630002046BDE81040442101F0E2BA70470000B6
:1006400010B588B004461C2206496846FFF75FFED5
:10065000ADF808400021684601F0C9FC02498860F5
:1006600008B010BD142B00080000002070470000E7
:1006700070B5044600F0FEF80546601C02D0044840
:100680000078044400F0F6F8401BA042FAD370BD95
:10069000100000202DE9F84FDFF8A0B1002301275A
:1006A0004FF0030A4FF00F090BF1040EBEE000BF3C
:1006B00007FA03F63440220072D04C68022C01D0B5
:1006C000122C12D1DC0800EB840CDCF820405D0712
:1006D000ED0E09FA05F824EA0804D1F8108008FAAA
:1006E00005F848EA0408CCF82080D0F800805D00C6
:1006F00091F804C00AFA05F40CF0030C28EA040887
:100700000CFA05FC4CEA080CC0F800C0D1F804C093
:10071000BCF1010F08D0BCF1020F05D0BCF1110FE4
:1007200002D0BCF1120F16D1D0F808C0D1F80C805D
:100730002CEA040C08FA05F848EA0C08C0F808800E
:10074000D0F804C02CEA060C0E79C6F300169E40C1
:1007500046EA0C064660C668A6438C68AC40344343
:10076000C4604C68E40060D5354CA56945F00105CE
:10077000A561A46923F0030504F001040094314C41
:100780002E19B4689D074FEA157C09FA0CF5AC43A5
:10079000B0F1904F05D02C4DA84204D101251CE0AA
:1007A00043E0002519E0294DA84201D1022514E0BB
:1007B000274DA84201D103250FE0264DA84201D1C3
:1007C00004250AE0244DA84201D1052505E0234D6A
:1007D000A84201D1062500E0072505FA0CF52543BE
:1007E000B560DBF800405D464E689443F60300D5E3
:1007F00014432C60DEF8004075464E689443B603FF
:1008000000D514432C600D4D08352C684E68944378
:10081000F60200D514432C60084D0C352C684E6848
:100820009443B60200D514432C605B1C0A6814463E
:10083000DA407FF43DAFBDE8F88F000000040140CE
:100840000010024000000140000400480008004879
:10085000000C004800100048001400480018004830
:100860000069084000D0012070470AB181617047DB
:1008700081627047014880687047000010000020C6
:10088000024881680278114481607047100000209E
:10089000074810B5016841F010010160032000F025
:1008A0008BF8002000F006F800F03EF8002010BDA4
:1008B0000020024000B5014687B000222C2000F045
:1008C0005BF82C2000F04AF81348816941F400518C
:1008D0008161806905A900F400500690684600F027
:1008E0006BFA00F089FA0D490D4AB0FBF1F10D48A1
:1008F000491E0260416040F2E7320021C0E9032155
:10090000816000F0F5FD10B1012007B000BD054881
:1009100000F036FEF9E700000010024040420F00F0
:1009200000340140380300200B4882B0816941F057
:1009300001018161816901F001010091C16941F00A
:100940008051C161C069002200F0805000900F21E9
:10095000901E02B000F010B800100240002809DB21
:1009600000F01F02012191404009800000F1E020C9
:10097000C0F8001170470000F0B40E4B1B680C4625
:10098000C3F30223C3F10705042D00D90425191D63
:10099000072901D2002300E0DB1E012606FA05F13B
:1009A000491E214099409E40761E16403143F0BCBE
:1009B00001F0DFBA0CED00E0064900F0070208681C
:1009C0004FF6FF03184040EA0220034A1043086034
:1009D000704700000CED00E00000FA052DE9F84F2B
:1009E000044600689F4DC0036FD5E8690026C0002B
:1009F00008D4E86940F08050E861E869012600F019
:100A00008050009098480168C90512D4016880465A
:100A100041F480710160FFF72DFF074605E000BF3C
:100A2000FFF728FFC01B642835D8D8F80000C005A0
:100A3000F6D5286A10F4407053D0A18801F44071B3
:100A400081424ED0286A4FF4803191FAA1F2B2FA75
:100A500082F29700854A4FF00108174420F4407055
:100A6000C7F8008491FAA1F1B1FA81F102EB81019A
:100A70000023C1F800342862C00732D0FFF7FAFE25
:100A8000074641F2883A4FF0020907E0FFF7F2FE0D
:100A9000C11B514502D90320BDE8F88F99FAA9F18D
:100AA000B1FA81F141F040024846B8EB521F01D142
:100AB0002A680CE090FAA0F2B2FA82F242F0400208
:100AC000B0EB521F02D12A6A01E015E06A6A99FA76
:100AD000A9F0B0FA80F000F01F0008FA00F10A4215
:100AE000D4D0286A616820F44070084328621EB19F
:100AF000E86920F08050E8612078C00705D0286BB5
:100B0000A16820F00300084328632078800705D5FA
:100B1000286BE16820F440300843286320784007C0
:100B200005D5286B216920F44020084328632078EC
:100B3000800605D5286BE16920F010000843286382
:100B40002068800305D56868616D20F48000084343
:100B500068602078400605D5286B216A20F02000C7
:100B6000084328632068400305D5286B616A20F09C
:100B70004000084328632078000705D5286B616989
:100B800020F44010084328632078C00605D5286B60
:100B9000A16920F44000084328632088800505D51A
:100BA0006868216B20F40000084368602078000624
:100BB00005D5E86AA16A20F4F8700843E862208845
:100BC000C00505D5E86AE16A20F478500843E86278
:100BD0002088C00405D5286B616B20F48070084321
:100BE00028632088800405D5286B216C20F40070D0
:100BF000084328632068C00205D5286BA16B20F04C
:100C00008070084328632068800205D5286BE16B5B
:100C100020F00070084328632068400205D5286B47
:100C2000616C20F48060084328632068000205D5C9
:100C3000286BA16C20F40060084328632068C00181
:100C400005D5286BE16C20F4005008432863206828
:100C5000800105D5286B216D20F4004008432863EE
:100C6000002019E7001002400070004000004242DE
:100C70002DE9F0470F46050069D04A4E306800F074
:100C80000700B84209D2306820F0070038433060CE
:100C9000306800F00700B84259D12878424C8007EC
:100CA00005D56068A96820F0F000084360602878E6
:100CB000C0073DD06968012001290DD0022923D049
:100CC0005FF0020393FAA3F2B2FA82F242F020023A
:100CD000520904D0226803E04FF40033F2E7626A5D
:100CE00093FAA3F3B3FA83F303F01F03984002428D
:100CF0002DD0606820F0030008436060FFF7BAFD64
:100D0000804641F288390CE04FF00073DAE700BF0B
:100D1000FFF7B0FDA0EB0801494502D90320BDE86B
:100D2000F0876068696800F00C00B0EB810FEFD1CC
:100D3000306800F00700B8420BD9306820F0070097
:100D400038433060306800F00700B84201D001201D
:100D5000E5E72878400705D56068E96820F4E06099
:100D6000084360602878000706D56068296920F488
:100D7000605040EAC100606000F056F86168F022FF
:100D800092FAA2F201F0F001B2FA82F2D140074ADF
:100D9000515CC8400649086006480068FFF78AFDB4
:100DA0000020BCE700200240001002406C2B00082D
:100DB0001C000020140000200F2202600C4A53681F
:100DC00003F003034360536803F0F0038360536848
:100DD00003F4E063C36052684FF4E06303EAD202B5
:100DE00002610448006800F00700086070470000D6
:100DF0000010024000200240084809490068496884
:100E00004FF4605292FAA2F201F46051B2FA82F207
:100E1000D140044A515CC840704700001C000020CB
:100E2000001002407C2B0008144A10B55168144889
:100E300001F00C03042B1FD0082B1DD14FF47014AC
:100E400094FAA4F401F47013B4FA84F4E3400D4C62
:100E5000D26AE45C0F2393FAA3F302F00F02B3FA11
:100E600083F3DA40074BC90310339A5C0023194619
:100E7000FFF70CFAA0FB040110BD000000100240B7
:100E800000127A004C2B00082DE9F84F04007DD0A9
:100E90002078FA4DC0074FF0010637D06868770414
:100EA000C0F38100012819D06868C0F381000228CE
:100EB00004D16868C0F3C13002280FD06068B0F573
:100EC000803F24D010B1B0F5A02F2AD0286820F49C
:100ED00080302860286820F480201BE097FAA7F073
:100EE000B0FA80F040F02000400901D0286800E00E
:100EF000686A97FAA7F1B1FA81F101F01F0106FAC9
:100F000001F108424ED060680028C0D04AE028684D
:100F100040F480302860606820B3FFF7ABFC804667
:100F20000AE0286840F480202860F0E7FFF7A2FC80
:100F3000A0EB0800642873D897FAA7F0B0FA80F005
:100F400040F02000400901D0286800E0686A97FA64
:100F5000A7F1B1FA81F101F01F0106FA01F108428F
:100F6000E4D01FE0FFF786FC804605E0FFF782FC37
:100F7000A0EB08006428DED897FAA7F0B0FA80F05A
:100F800040F02000400902D0286801E0B9E0686A1A
:100F900097FAA7F1B1FA81F101F01F0106FA01F108
:100FA0000842E3D12078DFF8D88280074FF0000AAA
:100FB0004FF002075DD568684FF0F80B10F00C0F8A
:100FC00015D06868C0F38100022804D16868C0F3B6
:100FD000C13001280BD0E068A0B396FAA6F0B0FAB1
:100FE00080F048F82060FFF745FC814620E097FA42
:100FF000A7F0B0FA80F040F02000400901D0286846
:1010000000E0686A97FAA7F1B1FA81F101F01F01D7
:1010100006FA01F1084221D0E068012871D11DE0F3
:1010200056E100BFFFF726FCA0EB09000228A2D87A
:1010300097FAA7F0B0FA80F040F02000400902D003
:10104000286801E016E0686A97FAA7F1B1FA81F121
:1010500001F01F0106FA01F10842E3D028689BFA6B
:10106000ABF22169B2FA82F220F0F8009140084315
:10107000286024E096FAA6F1B1FA81F148F821A09F
:10108000FFF7F8FB814605E0FFF7F4FBA0EB090052
:101090000228CCD897FAA7F0B0FA80F040F02000F0
:1010A000400901D0286800E0686A97FAA7F1B1FA10
:1010B00081F101F01F0106FA01F10842E4D1207824
:1010C00000076AD56069A0B396FAA6F0B0FA80F07E
:1010D00008EB8000C0F88064FFF7CCFB814605E098
:1010E000FFF7C8FBA0EB09000228A0D897FAA7F0E9
:1010F000B0FA80F040F06000B6EB501F02D12868D3
:101100000CE09DE197FAA7F0B0FA80F040F06000A3
:10111000B7EB501F01D1286A00E0686A97FAA7F17F
:10112000B1FA81F101F01F0106FA01F21042D7D0A5
:1011300033E0FFE796FAA6F0B0FA80F008EB800003
:10114000C0F880A4FFF796FB814605E0FFF792FB0D
:10115000A0EB090002289CD897FAA7F0B0FA80F01B
:1011600040F06000B6EB501F01D128680BE097FA01
:10117000A7F0B0FA80F040F06000B7EB501F01D14B
:10118000286A00E0686A97FAA7F1B1FA81F101F0E4
:101190001F0106FA01F21042D8D12078400774D519
:1011A000E8694FF00009C00009D4E86940F08050B8
:1011B000E861E8694FF0010900F080500090314883
:1011C0000168C90512D4016841F480710160FFF71C
:1011D00051FB834606E000BFFFF74CFBA0EB0B0082
:1011E000642875D827480068C005F5D5A06801288F
:1011F0000AD008B1052811D0286A20F00100286221
:10120000286A20F0040002E0286A40F00100286209
:10121000A068C8B3FFF72EFB83460DE0286A40F0B4
:1012200004002862F0E700BFFFF724FBA0EB0B01EE
:1012300041F2883081424BD897FAA7F0B0FA80F09B
:1012400040F04000B6EB501F01D128680BE097FA40
:10125000A7F0B0FA80F040F04000B7EB501F01D18A
:10126000286A00E0686A97FAA7F1B1FA81F101F003
:101270001F0106FA01F21042D6D035E000100240FC
:10128000000042420070004000E034E0FFF7F2FA54
:10129000834607E0FFF7EEFAA0EB0B0141F288303E
:1012A000814215D897FAA7F0B0FA80F040F04000DC
:1012B000B6EB501F01D128680CE097FAA7F0B0FAFE
:1012C00080F040F04000B7EB501F02D1286A01E0E7
:1012D00089E0686A97FAA7F1B1FA81F101F01F017C
:1012E00006FA01F21042D5D1B9F1000F03D0E86936
:1012F00020F08050E861A06980B36968C1F3810182
:10130000022973D04FF080714F000228524609D055
:1013100091FAA1F0B0FA80F048F82020FFF7AAFA7D
:10132000044664E091FAA1F0B0FA80F08A46C14622
:1013300048F82020FFF79EFA804605E0FFF79AFA6A
:10134000A0EB080002284ED897FAA7F0B0FA80F078
:1013500040F02000400902D0286801E072E0686A8D
:1013600097FAA7F1B1FA81F101F01F0106FA01F134
:101370000842E3D1E86A616A20F00F000843E8629E
:10138000D4E907100843696821F4761108436860BE
:101390009AFAAAF0B0FA80F049F82060FFF76AFAEA
:1013A000044604E0FFF766FA001B02281BD897FAF0
:1013B000A7F0B0FA80F040F02000400901D0286882
:1013C00000E0686A97FAA7F1B1FA81F101F01F0114
:1013D00006FA01F10842E5D034E000BFFFF74AFA0F
:1013E000001B022803D90320BDE8F88F15E097FA07
:1013F000A7F0B0FA80F040F02000400901D0286842
:1014000000E0686A97FAA7F1B1FA81F101F01F01D3
:1014100006FA01F10842E1D114E00128E4D068683D
:10142000E96AE36900F4C0329A4209D1226A00F401
:101430007010904204D101F00F00616A884201D01F
:101440000120D1E70020CFE77047704770470000C8
:10145000F0B590F83C20012A3CD0012580F83C50A2
:10146000022280F83D200268536894681A4E1B4F90
:10147000DFF86CC0B24203D0BA4201D0624504D159
:1014800023F4700E4B6843EA0E0323F0700E0B68D2
:1014900043EA0E0353600268B2420FD0B2F1804FAC
:1014A0000CD0104B9A4209D00F4B9A4206D0BA4248
:1014B00004D00E4B9A4201D0624504D1896824F0D1
:1014C00080031943916080F83D50002180F83C1062
:1014D0000846F0BD0220F0BD002C01400034014060
:1014E000005001400004004000080040004001405E
:1014F00010B5040003D094F83D0010B107E00120BE
:1015000010BD002084F83C00204600F00DF80220B9
:1015100084F83D00211D206800F0E6FB012084F8DE
:101520003D00002010BD000008B500680649884253
:1015300008D10648816941F400618161806900F445
:101540000060009008BD0000002C01400010024027
:10155000022180F83D1001688A68084B1A40062A6B
:1015600006D0B2F5803F03D00A6842F001020A605B
:10157000012180F83D1000207047000007000100A5
:101580000168CA6842F00102CA6001688868064AB8
:101590001040062806D0B0F5803F03D0086840F020
:1015A00001000860002070470700010070B5044684
:1015B00090F83C00012817D0012584F83C50022007
:1015C00084F83D00226890682E4B184020F47F403C
:1015D00090600868502830D00DDC20284DD005DC04
:1015E00098B310283BD148E0022070BD302844D089
:1015F000402834D139E0602828D0702806D0B0F5D2
:10160000805F2CD0B0F5005F29D10AE0CB68D1E92A
:101610000121206800F0CAFB2068816841F0770151
:1016200009E0CB68D1E90121206800F0BFFB206808
:10163000816841F48041816011E0CA68496820688E
:1016400000F0C6FB5021206807E016E0CA68496830
:10165000206800F0CEFB6021206800F0B1FB84F828
:101660003D50002084F83C0070BDCA68496820687D
:1016700000F0AEFB40212068EFE7226801461046EB
:10168000EBE7000088FFFEFF704770B50446006876
:1016900001694FF00005C943890715D4C168C943E2
:1016A000890711D4E91E0161012020772068806933
:1016B0008007204602D0FFF7E7FF04E000F0A7F81C
:1016C000204600F0A5F8257720680169C94349073D
:1016D00017D4C168C943490713D46FF004010161ED
:1016E000022020772068806910F4407F204602D0D5
:1016F000FFF7CAFF04E000F08AF8204600F088F8FF
:10170000257720680169C943090716D4C168C94310
:10171000090712D46FF008010161042020772068C6
:10172000C0698007204602D0FFF7AEFF04E000F05A
:101730006EF8204600F06CF8257720680169C943EF
:10174000C90617D4C168C943C90613D46FF0100184
:101750000161082020772068C06910F4407F20468E
:1017600002D0FFF791FF04E000F051F8204600F0AE
:101770004FF8257720680169C943C90708D1C168B6
:10178000C943C90704D1891E0161204600F042F80F
:1017900020680169C943090609D4C168C94309061B
:1017A00005D46FF0800101612046FFF74EFE2068EE
:1017B0000169C943C90509D4C168C943090605D4EB
:1017C0006FF4807101612046FFF73EFE20680169D9
:1017D000C943490609D4C168C943490605D46FF015
:1017E00040010161204600F01FF820680169C943EB
:1017F00089060BD4C168C943890607D46FF020015C
:1018000001612046BDE87040FFF720BE70BD704703
:101810007047000000680349884201D1FFF730B8E3
:1018200070470000003401407047FEE700B587B004
:101830001C2206496846FEF76AFD0021684600F052
:10184000D6FB0349086007B000BD0000302B00083C
:101850000C00002030B587B014216846FEF770FDFB
:101860001248416941F480014161416901F48001FC
:101870000591416941F40031416140694FF40044F0
:1018800000F400304FF09045059000222146284694
:10189000FEF7EBFF012000210094CDE90101039147
:1018A00069462846FEF7F6FE07B030BD001002403C
:1018B00010B588B000241848059406940394049445
:1018C000009401941349029401604721C0E9011476
:1018D0004FF6FF71C0E9031444618461FFF708FE0D
:1018E00008B1FEF7C3FE4FF48050039003A90A48E5
:1018F000FFF75CFE08B1FEF7B9FE0094019469465B
:1019000005480294FFF7A4FD002801D0FEF7AEFEC3
:1019100008B010BD002C0140F8020020FEE770471F
:10192000044900220B685A6209684A6A8242FCD95B
:1019300070470000F802002000B585B00021019139
:101940000291032103918188009100686946FEF7A6
:10195000A1FE05B000BD00B585B0112101910021A7
:101960000291032103918188009100686946FEF786
:1019700091FE05B000BD000030B50446002011E026
:1019800014F8013B5FF0080280EA030515F0010F2F
:101990004FEA500001D080F08C005B08521E12F01C
:1019A000FF02F1D1491EC9B2EAD230BD10B50246DC
:1019B00000F088F8BDE81040F021104600F087B82C
:1019C000002283185B7A8B54521CD2B2082AF8D3B7
:1019D0007047000070B5044615460E460F48FFF7E5
:1019E000B7FD2660A5802046FFF7B5FF2168A088D7
:1019F00088614FF47A752846FEF73AFEA088216880
:101A0000000488612846FEF733FE2168A0888861BB
:101A10006800BDE87040FEF72BBE0000F802002011
:101A2000F02100F054B870B5044680882168002584
:101A3000000488612046FFF78EFF0220FFF770FF49
:101A40002046FFF779FF0A20FFF76AFFA188206888
:101A5000FEF706FF00B101253220FFF761FF28469F
:101A600070BD70B505460824002006E046082846EB
:101A7000FFF7D9FF46EAC010C0B2641EE4B2F5D247
:101A800070BD10B504468088216800048861204636
:101A9000FFF761FF4FF4F070FFF742FF1420FFF7EC
:101AA0003FFF2046FFF748FF4620FFF739FFA18898
:101AB0002068FEF7D5FE04464FF4CD70FFF730FFE7
:101AC000204610BD002181710172C17170472DE95E
:101AD000F04704464FF000090125007A88464F463A
:101AE0002E46CA46E0BB2046FFF7CBFFC0BB4146AF
:101AF000204600F085F82046FFF795FF80462046F7
:101B0000FFF791FF4146B8F1010F01D1012830D014
:101B1000804502D001290AD017E0A079A8420CD94B
:101B200004EB0700407A304208D04FF0010104EB8B
:101B30000700427A42EA06020AE0F6D04FF00001BE
:101B4000A946092D01D284F80790E019427AB243E0
:101B50004272204600F032F86D1CEDB2700000E0D9
:101B600013E010F0FF0602D17F1CFFB20126082F00
:101B7000C1D3412D09D35FEA0900A07101D1012031
:101B80002072617A0120002906D184F806A084F829
:101B900008A084F807A00020BDE8F08770B50D46C6
:101BA0000646552100F02CF800243046295D00F04F
:101BB00027F8641CE4B2082CF7D370BD10B50446B6
:101BC0008088020420688261204649B1FFF7C3FE85
:101BD0000A20FFF7A5FE2046FFF7AEFE372008E0FB
:101BE000FFF7B9FE4120FFF79BFE2046FFF7A4FE5A
:101BF0000520FFF795FE2046BDE81040FFF79CBE8C
:101C000070B50C460646082506E000BF04F0010149
:101C10003046FFF7D3FF64086D1EEDB2F6D270BDFB
:101C20000220FEF70DFD012000F0D5F9FBE70000D2
:101C300010B5502080F31188BFF34F8FBFF36F8F23
:101C400000F0A2FE18B104494FF080500860002057
:101C500080F3118810BD000004ED00E030B5A5B0A0
:101C6000282116A8FEF76CFB142120A8FEF768FBBC
:101C700058216846FEF764FB0120199010200225C8
:101C80001A90C002CDE91C504FF4E0100024CDE9B9
:101C90001E04169516A8FFF7F7F80F20CDE92005CA
:101CA0006802CDE92240022120A82494FEF7E0FF3B
:101CB000E80200900D946846FEF790FE25B030BD16
:101CC0000548016841F47001016003494FF000606C
:101CD000803908607047000088ED00E00148FFF798
:101CE000D4BC0000380300202DE9F0470268274BE0
:101CF000274E284F284C294D4FF0804A984209D052
:101D0000504507D0B04205D0B84203D0A04201D020
:101D1000A84204D122F0700C4A6842EA0C02DFF8B3
:101D200080C0DFF88080DFF8809098420FD0504567
:101D30000DD0B0420BD0B84209D0A04207D06045C8
:101D400005D0404503D0484501D0A84203D122F434
:101D50004076CA6832434E6922F080023243026004
:101D60008A68C2620A688262984209D0A04207D09B
:101D7000604505D0404503D0484501D0A84201D177
:101D80000969016301214161BDE8F087002C014030
:101D900000040040000800400034014000500140B1
:101DA00000400140004401400048014010B58468F3
:101DB00042EA032224F47F440A432243826010BD96
:101DC000826822F070020A4342F007018160704786
:101DD00010B5036A046A24F001040462846924F0E3
:101DE000F00444EA021423F00A020A438461026206
:101DF00010BD10B5036A23F0100303628369046AFF
:101E000023F4704343EA023224F0A00343EA0111B1
:101E10008261016210BD00000525DFF84CA1DFF8EA
:101E20004C814FF4004B40F6B83900264E485A46D4
:101E30004FF090411030FFF7CDFD88F800604F461D
:101E400002E0642000F0C7F8FEF714FDB842F8D3B2
:101E500045481030FFF7AAFD444688F8020057466F
:101E600012E0642000F0B7F82078401CC0B2207067
:101E700007EB00113C4810391030FFF7A1FD3A483C
:101E80001030FFF7CDFDA07010F0FF0FE9D12078E2
:101E900008B125B107E06D1E15F0FF05C6D1D8F8D1
:101EA000080000F0DDFB0025B84614E0322000F009
:101EB00092F82D4808EB05170C2239461030FEF732
:101EC0004BFB322000F087F8274839461030FEF7E8
:101ED00066FA6D1CEDB220788542E7D34FF4FA79AB
:101EE0002148A4F804901030FEF79AFB642000F01B
:101EF00072F808E00A2000F06EF8A088401E000486
:101F0000000CA0801ED018481030FEF746FA0028BA
:101F1000F0D0A088B0B100274FF47A7A0EE0504696
:101F200000F059F808EB07150F4805F1080229469B
:101F30001030FEF787FA7F1C2873FFB220788742A3
:101F4000EDD30AE000202178424604E002EB0013C2
:101F5000401C1E73C0B28842F8D3667042F2107003
:101F600000F039F8BCE700008000002000000020ED
:101F7000FEE70907090E002804DB00F1E02080F8E5
:101F80000014704700F00F0000F1E02080F8141DED
:101F9000704702E008C8121F08C1002AFAD1704732
:101FA0007047002001E001C1121F002AFBD17047D9
:101FB000FEF76EFCFFF752FEFFF74CFCFFF778FCD4
:101FC000FFF734FC00F00EF8FEE7014600208429FC
:101FD00000D0C81C704710B500B9012000F01AFBF2
:101FE000002010BD10B500F091FB002010BD7FB5A2
:101FF0000D4604464169B0F9080081B1A16971B18B
:10200000FFF7E3FFD4E905128DE80700D4E90010DB
:102010002B46226900F08DFC039004B070BDFFF7E1
:10202000D4FF03A9CDE90001208A2B4682B2D4E96E
:10203000001000F051FC012801D00020EDE70398CA
:10204000EBE700002DE9F041184C0F4605466669A4
:102050002068001D00F01AFA38B9206890F82C109A
:1020600001208840A1698143A161681C07D137B173
:102070002168BDE8F0410E48091D00F04BBA206808
:102080003544B5424560216805D2A068BDE8F041FD
:10209000091D00F027BA6068091D00F023FA206BC3
:1020A000854200D22563BDE8F081000020000020B9
:1020B000540400202DE9F041054600F037FA2E4C7B
:1020C0002069401C206120682C4F10B1E06940B3AA
:1020D0002DE025602069012829D1002606EB860025
:1020E00007EB800000F0F0F9761C072EF6D32348AA
:1020F0008C3000F0E9F92148A03000F0E5F91F48E4
:10210000B43000F0E1F91D48C83000F0DDF91B489B
:10211000DC3000F0D9F919488C3060601430A060D0
:1021200005E02068E96AC06A884200D82560E06A54
:10213000401CE062E96A0120A26988401043A06166
:1021400001EB810007EB8000291D00F0E3F900F0AE
:102150000DFAE06900280CD02068E96AC06A88425C
:1021600007D207494FF080500860BFF34F8FBFF38D
:102170006F8FBDE8F0810000200000207803002070
:1021800004ED00E010B5044690F8510058B1012864
:102190000CD002280FD0502080F31188BFF34F8F4E
:1021A000BFF36F8FFEE7206B00F0F4F92046BDE827
:1021B000104000F0EFB910BD10484FF440614207E5
:1021C00006D0C01D0D4920F00700411AC1F540613D
:1021D0000B4A00230144C2E900030839103A21F0F8
:1021E000070111604B600B600B1AC0E9001393608C
:1021F0004FF000405360D06070470000680400203A
:102200006C000020144E154CA6F1C8074FF0805802
:10221000DFF84C9012E000BF00F088F9F068C56864
:10222000281D00F033F92069401E2061E068401E3F
:10223000E06000F09BF92846FFF7A4FFE068002863
:10224000EAD138680128F9D9C9F80080BFF34F8F67
:10225000BFF36F8FF2E70000400400202000002051
:1022600004ED00E02DE9F0479A46DDE90984814656
:102270006FF00303206B03EB82021044089D20F0F3
:102280000706700707D0502080F31188BFF34F8FE7
:10229000BFF36F8FFEE723180A5C83F834200A5CD3
:1022A00012B1401C1028F6D3002784F84370072D84
:1022B00000D30625E562C4E91157201D00F00FF98F
:1022C00004F1180000F00BF92461C5F10700646205
:1022D000A061E76484F8507052464946304600F0E9
:1022E000BFF82060B8F1000F01D0C8F80040BDE889
:1022F000F087000030B5114900E011460A688242BB
:10230000FBD34B685C18844203D140681844486092
:10231000084643681C18944209D1084C103C2468B4
:10232000A24209D052681A4442600A6812680260E8
:10233000814200D0086030BD0460F9E76C000020E5
:1023400006484168096829B14168C968C96849688F
:10235000016370474FF0FF31FAE7000020000020D2
:1023600008484068401C4FF0500080F3118804D0AA
:10237000BFF34F8FBFF36F8FFEE7BFF34F8FBFF3F6
:102380006F8FFEE7740000202DE9F041054600271D
:1023900000F0F2F9314E306808B9FFF70DFFF06830
:1023A00005424BD1C5B3083568070ED005F00700CC
:1023B000C0F108000544680707D0502080F3118859
:1023C000BFF34F8FBFF36F8FFEE72DB37068854269
:1023D00034D82248103001460C6801E020460C46F3
:1023E0006168A94202D221680029F7D131688C4284
:1023F00024D007682168016060680837411B1029F4
:102400000FD96019420708D0502080F31188BFF31C
:102410004F8FBFF36F8FFEE710E041606560FFF7FD
:1024200069FF61687068401A7060B268904200D2BB
:10243000B060F06801430020C4E9000100F008FB2F
:10244000780707D0502080F31188BFF34F8FBFF378
:102450006F8FFEE73846BDE8F08100005C00002089
:1024600010B5031F4FF080741C601B1F21F0010189
:102470001960191F044B0B6014390A60091F6FF0B3
:10248000020244380A6010BD61230008D0E901321D
:1024900001699A60D0E901235A604A68824201D1F9
:1024A00082684A60002202610868401E086008686D
:1024B00070470000034B036003F154000860802064
:1024C00010607047A400002000F108014FF0FF32B7
:1024D000C0E90112C1600161002101607047002163
:1024E0000161704730B50B685A1C02D000F1080238
:1024F00002E0026904E02246546825689D42FAD948
:1025000053684B6099608A60516008610168491C9A
:10251000016030BD42684A6093688B60936859607F
:10252000916008610168491C01607047502080F388
:102530001188BFF34F8FBFF36F8F0A494868401C63
:10254000486001280CD10848006810F0FF0F07D040
:10255000502080F31188BFF34F8FBFF36F8FFEE7DA
:10256000704700007400002004ED00E0084948684E
:1025700028B1401E486001D180F311887047502077
:1025800080F31188BFF34F8FBFF36F8FFEE700001A
:102590007400002070B5002827D0144DA0F1080465
:1025A0006168E868014207D1502080F31188BFF3C9
:1025B0004F8FBFF36F8FFEE722683AB1502080F350
:1025C0001188BFF34F8FBFF36F8FFEE781436160C8
:1025D00000F0D2F860686968084468602046FFF738
:1025E00089FEBDE8704000F033BA70BD5C00002089
:1025F0004FF0E02000210161816105494FF47A72BA
:102600000968B1FBF2F1491E416107210161704780
:102610001C00002010B5020014D00F48806B38B1A8
:10262000502080F31188BFF34F8FBFF36F8FFEE709
:1026300000F0A2F800211046FFF704FD00F008FAB0
:10264000002807D105494FF080500860BFF34F8F35
:10265000BFF36F8F10BD00002000002004ED00E0EC
:1026600070B50546FFF762FF254C05B92568281DA2
:10267000FFF70CFF58B9E86A224A00EB800152F8D4
:10268000211021B901218140A0698843A061A86A75
:1026900018B105F11800FFF7F9FEE06A401CE0628E
:1026A0002068854208D11748291DC830FFF732FF3E
:1026B000E068401CE06007E02069401E2061284679
:1026C000FFF760FDFFF73CFEFFF750FFE0690028D1
:1026D00014D02068854211D1A06B38B1502080F30E
:1026E0001188BFF34F8FBFF36F8FFEE706494FF09E
:1026F00080500860BFF34F8FBFF36F8F70BD000035
:10270000200000207803002004ED00E010B586B022
:102710000024039405AA04A903A80494FFF7CAFEA1
:10272000DDE903010094CDE9011000230EA110485A
:10273000059A00F0FEF80F490028486311D0502098
:1027400080F31188BFF34F8FBFF36F8F4FF0FF30CF
:1027500008630120C8614C6106B0BDE8104000F07C
:1027600041B806B010BD000049444C4500000000CF
:1027700005220008200000200248816B491C81636B
:1027800070470000200000201448816B11B1012126
:1027900041627047002141628169B1FA81F1C1F162
:1027A0001F0101EB81020E4951F822306BB101EBA0
:1027B000820101F108034A6852684A609A4201D1D5
:1027C00052684A60D16801607047502080F31188D8
:1027D000BFF34F8FBFF36F8FFEE700002000002094
:1027E000780300201CB537480168374A914207D169
:1027F000502080F31188BFF34F8FBFF36F8FFEE738
:1028000000683149491E884207D1502080F3118861
:10281000BFF34F8FBFF36F8FFEE72C49087801900D
:10282000FF20087008788DF800009DF800009DF8E2
:10283000002000F0F000904207D0502080F3118873
:10284000BFF34F8FBFF36F8FFEE79DF80000204B63
:1028500000F0500018700720986005E09DF80020F7
:1028600052008DF80020401E9DF800201206F5D47D
:102870009860032807D0502080F31188BFF34F8F52
:10288000BFF36F8FFEE74FF44070986001980870B7
:102890000C482030016841F470010160016841F08A
:1028A00070410160FFF7A4FE00205860FDF7A0FC16
:1028B0000848016841F040410160FDF785FC0020B7
:1028C0001CBD000000ED00E071C20F4100E400E01B
:1028D0007400002034EF00E02DE9FF5F8346DDE95E
:1028E0000E87994616468A469000FFF74DFD050073
:1028F0001CD05420FFF748FD040014D000202563AD
:1029000084F85100CDE90240CDE900874B463246BC
:1029100051465846FFF7A6FC2046FFF7CBFB0120A7
:1029200004B0BDE8F09F2846FFF734FE4FF0FF30BB
:10293000F6E7F0B585B0DDE90B640A9DA6B1DCB120
:10294000542700972663022684F85160002604AFBE
:10295000CDE90246CDE90057FFF784FC2046FFF79A
:10296000A9FB049805B0F0BD502080F31188BFF397
:102970004F8FBFF36F8FFEE7502080F31188BFF3B6
:102980004F8FBFF36F8FFEE72DE9F0412E4C0027EC
:10299000A06B40B1206A401C2062606A00B1012730
:1029A0003846BDE8F0816669761C666113D16068BF
:1029B000006838B1502080F31188BFF34F8FBFF308
:1029C0006F8FFEE76068A1686160A060A06A401C2C
:1029D000A062FFF7B5FC206BDFF87080864209D358
:1029E0006068006880B16068C068C56868688642D1
:1029F0000DD220632068C06A00EB800158F82100E6
:102A00000128CAD90127C8E74FF0FF30F1E7281D98
:102A1000FFF73CFDA86A18B105F11800FFF736FD75
:102A2000E86A0121A26981401143A16100EB8001A4
:102A300008EB8100291DFFF76DFDE86A2168C96A6E
:102A40008842CDD30127CBE7200000207803002067
:102A50002DE9F0472C4D00242746A86B38B1FFF72D
:102A600065FDA86B401EA863A86B40B146E05020EE
:102A700080F31188BFF34F8FBFF36F8FFEE7296993
:102A8000224E0120D1B3A6F1B40980463068E8B1E6
:102A9000F068C46804F11800FFF7F8FC201DFFF788
:102AA000F5FCE06AAA6908FA00F11143A96100EB9C
:102AB000800109EB8100211DFFF72CFDE06A2968E8
:102AC000C96A8842E2D3C5F82480DFE70CB1FFF77A
:102AD00037FC2C6A44B14646FFF756FF00B16E62E0
:102AE000641EF9D100202862686A38B108490127BC
:102AF00038070860BFF34F8FBFF36F8FFFF736FDC6
:102B00003846BDE8F0870000200000202C0400209B
:102B100004ED00E0842B0008191E000800000000EE
:102B20000000000080000000000000000000000025
:102B3000942B0008211C0008000000000000000089
:102B400080000000000000000000000002030405F7
:102B5000060708090A0B0C0D0E0F101001020304E2
:102B600005060708090A0B0C0D0E0F1000000000E7
:102B7000000000000102030406070809000000002D
:102B8000010203046D795461736B5F4473313862E1
:102B90003230000064656661756C745461736B005B
:102BA000C02B00080000002080000000921F0008D9
:102BB000402C000880000020E8130000A21F00083D
:102BC0000000000000000000000000000000000005
:102BD00001000000100000000000000000127A0058
:102BE00000000000000000000000000000000000E5
:102BF00000000000000000000000000000000000D5
:102C000000000000000000000000000000000000C4
:102C100000000000000000000000000000000000B4
:102C200000000000000000000000000000000000A4
:102C30000000000000000000AAAAAAAA00000000EC
:040000050800019559
:00000001FF
